:100000000C9435000C945D000C945D000C945D0024
:100010000C945D000C945D000C945D000C945D00EC
:100020000C945D000C945D000C945D000C945D00DC
:100030000C945D000C945D000C945D000C945D00CC
:100040000C94A3020C945D000C94AF010C94E1019C
:100050000C945D000C945D000C945D000C945D00AC
:100060000C945D000C945D00110211241FBECFEFB3
:10007000D8E0DEBFCDBF11E0A0E0B1E0E4EAF6E0F9
:1000800002C005900D92A633B107D9F721E0A6E38F
:10009000B1E001C01D92AC3DB207E1F710E0C5E34D
:1000A000D0E004C02197FE010E944A03C433D10767
:1000B000C9F70E9494020C9450030C94000026E0AF
:1000C00040E855E260E070E086E391E00C944A017C
:1000D00060E071E086E391E00C948102FC01918D77
:1000E000228D892F90E0805C9F4F821B91098F7336
:1000F00099270895FC01918D828D981731F0828D9A
:10010000E80FF11D858D90E008958FEF9FEF089522
:10011000FC01918D828D981761F0828DDF01A80F0F
:10012000B11D5D968C91928D9F5F9F73928F90E031
:1001300008958FEF9FEF0895FC01538D448D252F77
:1001400030E0842F90E0821B930B541710F0CF9671
:1001500008950197089587E092E0892B49F080E0A7
:1001600090E0892B29F00E94070281110C94000075
:100170000895FC01848DDF01A80FB11DA35ABF4F64
:100180002C91848D90E001968F739927848FA68996
:10019000B7892C93A089B1898C91837080648C93EA
:1001A000938D848D981306C00288F389E02D808199
:1001B0008F7D80830895EF92FF920F931F93CF93CB
:1001C000DF93EC0181E0888F9B8D8C8D981305C0A7
:1001D000E889F989808185FD26C0F62E0B8D10E017
:1001E0000F5F1F4F0F731127E02E8C8DE8120CC08C
:1001F0000FB607FCFACFE889F989808185FFF5CF32
:10020000CE010E94B900F1CF8B8DFE01E80FF11DE8
:10021000E35AFF4FF0829FB7F8940B8FEA89FB896E
:10022000808180620AC09FB7F894EE89FF8960835D
:10023000E889F98980818370806480839FBF81E031
:1002400090E0DF91CF911F910F91FF90EF90089573
:10025000CF93DF93EC01888D8823C9F0EA89FB896D
:10026000808185FD05C0A889B9898C9186FD0FC064
:100270000FB607FCF5CF808185FFF2CFA889B98939
:100280008C9185FFEDCFCE010E94B900E7CFDF91C1
:10029000CF910895CF92DF92EF92FF921F93CF9369
:1002A000DF93EC016A017B01122FE889F98982E072
:1002B00080834115514E61057105B1F060E079E030
:1002C0008DE390E0A70196010E942803DA01C9019D
:1002D0000197A109B109B695A795979587959C01B6
:1002E000211580E13807A8F0E889F989108260E8D3
:1002F00074E88EE190E0A70196010E942803DA01DC
:10030000C9010197A109B109B695A7959795879558
:100310009C01EC85FD853083EE85FF852083188E5A
:10032000EC89FD891083EA89FB8980818061808363
:10033000EA89FB89808188608083EA89FB898081E2
:1003400080688083EA89FB8980818F7D8083DF914B
:10035000CF911F91FF90EF90DF90CF9008951F9263
:100360000F920FB60F9211242F938F939F93EF93B9
:10037000FF93E0914601F09147018081E0914C01AB
:10038000F0914D0182FD12C0908180914F018F5FED
:100390008F7320915001821751F0E0914F01F0E0EE
:1003A000EA5CFE4F958F80934F0101C08081FF91E1
:1003B000EF919F918F912F910F900FBE0F901F90F3
:1003C00018951F920F920FB60F9211242F933F93FF
:1003D0004F935F936F937F938F939F93AF93BF934D
:1003E000EF93FF9386E391E00E94B900FF91EF91B4
:1003F000BF91AF919F918F917F916F915F914F913D
:100400003F912F910F900FBE0F901F90189586E38C
:1004100091E00E946E0021E0892B09F420E0822FF8
:100420000895E6E3F1E01382128288EE93E0A0E003
:10043000B0E084839583A683B78389E191E09183BB
:10044000808385EC90E09587848784EC90E09787A3
:10045000868780EC90E0918B808B81EC90E0938B91
:10046000828B82EC90E0958B848B86EC90E0978B6E
:10047000868B118E128E138E148E0895CF92DF927A
:10048000EF92FF920F931F93CF93DF936C017A014A
:100490008B01C0E0D0E0CE15DF0581F0D8016D9171
:1004A0008D01D601ED91FC910190F081E02DC60106
:1004B0000995892B11F02196EECF7E01C701DF91BE
:1004C000CF911F910F91FF90EF90DF90CF90089503
:1004D0006115710579F0FB0101900020E9F7319772
:1004E000AF01461B570BDC01ED91FC910280F381BB
:1004F000E02D099480E090E0089567E271E00C94AB
:1005000068020F931F93CF93DF93EC010E94680260
:100510008C01CE010E947D02800F911FDF91CF914F
:100520001F910F91089508950E94ED020E94930279
:100530000E945F00CBEAD0E00E9468002097E1F3C0
:100540000E94AB00F9CF1F920F920FB60F921124A9
:100550002F933F938F939F93AF93BF938091D40139
:100560009091D501A091D601B091D7013091D301DE
:1005700023E0230F2D3720F40196A11DB11D05C0E6
:1005800026E8230F0296A11DB11D2093D30180936D
:10059000D4019093D501A093D601B093D701809157
:1005A000D8019091D901A091DA01B091DB010196B7
:1005B000A11DB11D8093D8019093D901A093DA01B8
:1005C000B093DB01BF91AF919F918F913F912F919C
:1005D0000F900FBE0F901F901895789484B582608D
:1005E00084BD84B5816084BD85B5826085BD85B5D7
:1005F000816085BDEEE6F0E0808181608083E1E886
:10060000F0E01082808182608083808181608083BD
:10061000E0E8F0E0808181608083E1EBF0E08081C0
:1006200084608083E0EBF0E0808181608083EAE792
:10063000F0E080818460808380818260808380811B
:10064000816080838081806880831092C1000895DA
:10065000A1E21A2EAA1BBB1BFD010DC0AA1FBB1FC6
:10066000EE1FFF1FA217B307E407F50720F0A21B38
:10067000B30BE40BF50B661F771F881F991F1A94A5
:1006800069F760957095809590959B01AC01BD01CF
:10069000CF010895EE0FFF1F0590F491E02D09940E
:0406A000F894FFCFFC
:1006A40077746620697320676F696E67206F6E20A8
:1006B400686572650000000000DB003E029C0028B3
:1006C400016E0088007A000D0A006E616E00696E8A
:0606D40066006F7666006F
:00000001FF
